:100000000C942A000C9467010C9467010C9467010E
:100010000C9467010C9467010C9467010C946701C0
:100020000C9467010C9467010C9467010C946701B0
:100030000C9467010C9467010C9467010C946701A0
:100040000C9467010C9467010C9467010C94670190
:100050000C94670111241FBECFE5D8E0DEBFCDBFF1
:0C0060000E9462010C944701F894FFCF4D
:10006C00442319F04130E9F174C0813099F028F043
:10007C008230E9F0833041F16EC02AB381E090E028
:10008C0002C0880F991F6A95E2F7809582238ABB7C
:10009C0081E0089527B381E090E002C0880F991F9A
:1000AC006A95E2F78095822387BB81E0089524B39B
:1000BC0081E090E002C0880F991F6A95E2F7809565
:1000CC00822384BB81E0089521B381E090E002C0DB
:1000DC00880F991F6A95E2F78095822381BB81E096
:1000EC000895813091F028F08230D9F0833029F1D5
:1000FC0034C02AB381E090E002C0880F991F6A9542
:10010C00E2F7822B8ABB81E0089527B381E090E06F
:10011C0002C0880F991F6A95E2F7822B87BB81E09A
:10012C00089524B381E090E002C0880F991F6A956E
:10013C00E2F7822B84BB81E0089521B381E090E04B
:10014C0002C0880F991F6A95E2F7822B81BB81E070
:0E015C00089581E0089580E0089580E0089500
:10016A0087B3886087BB83B7886083BF80E88CBF0A
:10017A0083B7806183BF83B78F7D83BF83B78E7F49
:10018A0083BF83B7846083BF83B78D7F83BF89B7FB
:0C019A00826089BF8FB780688FBF089516
:1001A60083B7806483BF83B7886083BF83B781606A
:1001B60083BF83B7826083BF83B78B7F83BF87B3D9
:1001C600886087BB83B78F7E83BF83B7806283BF18
:0401D6001CBE0895AE
:1001DA0083B78F7B83BF83B7877F83BF12BE83B703
:1001EA008E7F83BF83B7846083BF83B78D7F83BFCE
:0E01FA0089B7816089BF8FB780688FBF089575
:1002080097FB072E16F4009407D077FD09D00E94BB
:10021800180107FC05D03EF4909581959F4F0895ED
:08022800709561957F4F089568
:10023000AA1BBB1B51E107C0AA1FBB1FA617B7070C
:1002400010F0A61BB70B881F991F5A95A9F7809528
:080250009095BC01CD01089559
:1002580041E064E080E00E9436000E945B010E9459
:0E026800ED000E94B5000E94D30081E00895D1
:10027600C4E68C2F0E9452018FE39CE90197F1F7A7
:0802860000C00000C150F5CFDB
:10028E00EC010E946E010E946D01CE010E946F0171
:06029E00CE010E946B017D
:1002A400982F80E064E670E00E9404016CBF81E056
:0202B4000895AB
:0E02B60041E065E080E00E94360081E008959E
:0A02C4000E942C010E946901FDCF89
:0402CE000C9400008C
:0402D2000E943B014A
:0402D6000E9434004E
:0202DA00089585
:0202DC00089583
:0202DE00089581
:00000001FF
